:020000040800F2
:100000003805002021020008B31000084D06000842
:1000100051060008470600084D11000800000000C6
:10002000000000000000000000000000B710000801
:100030004B06000800000000B5100008B9100008C9
:100040003B0200083B0200083B0200083B0200089C
:100050003B0200083B0200083B0200083B0200088C
:100060003B0200083B0200083B0200083B0200087C
:100070003B0200083B0200083B0200083B0200086C
:100080003B0200083B0200083B0200083B0200085C
:100090003B0200083B0200083B0200083B0200084C
:1000A0003B0200083B0200083B0200083B0200083C
:1000B0003B0200083B0200083B0200083B0200082C
:1000C0003B0200083B0200083B0200083B0200081C
:1000D0003B0200083B0200083B0200083B0200080C
:1000E0003B0200083B0200083B0200083B020008FC
:1000F0003B0200083B0200083B0200083B020008EC
:100100003B0200083B0200083B0200083B020008DB
:100110003B0200083B0200083B0200083B020008CB
:100120003B0200083B0200083B0200083B020008BB
:100130003B0200083B0200083B0200083B020008AB
:100140003B0200083B0200083B0200083B0200089B
:100150003B0200083B020008000000003B020008D0
:100160003B0200083B020008000000000000000005
:100170003B0200083B0200083B02000800000000B0
:10018000000000003B0200083B0200083B020008A0
:100190003B0200080000000000000000000000001A
:1001A0000000000000000000000000003B0200080A
:1001B0003B020008000000003B02000800000000B5
:1001C000000000000000000000000000000000002F
:1001D00000000000000000003B0200083B02000895
:1001E0003B0200083B0200083B0200083B020008FB
:1001F0003B0200083B0200083B0200083B020008EB
:100200003B0200083B0200083B020008DFF80CD06C
:1002100000F0DCF900480047DD1800083805002030
:100220000648804706480047FEE7FEE7FEE7FEE790
:10023000FEE7FEE7FEE7FEE7FEE7FEE7BD1000088B
:100240000D0200082DE9F05F0546002092469B460E
:1002500088460646814640241BE0284641464746DC
:10026000224600F046F953465A46C01A914110D32F
:1002700011461846224600F02DF92D1A67EB0108A9
:100280004F4622460120002100F024F917EB000917
:100290004E41201EA4F10104DFDC484631462A46C7
:1002A0004346BDE8F09FD2B201E000F8012B491EA1
:1002B000FBD270470022F6E710B513460A46044603
:1002C0001946FFF7F0FF204610BD2DE9FE4F81EAE9
:1002D000030404F0004421F0004100944FF0000BAF
:1002E00023F0004350EA01045ED052EA03045BD0DD
:1002F000C3F30A54C1F30A552C44A4F2F334019415
:10030000A0FB0254C1F3130141F48011C3F31303A2
:1003100043F4801301FB024400FB034E840A970A56
:1003200044EA815447EA8357A4FB076802958D0A83
:1003300005FB07854FEA932C04FB0C542705029D0F
:100340004FEA065847EA1637B5EB08056EEB070C7F
:10035000870E920E47EA811742EA8312A7FB020139
:10036000B6EB0B0164EB00042B0D43EA0C335E1873
:1003700044EB1C50DA465146E7FB0201C5F3130477
:100380004FEA0B3343EA14534FEA0432019C43EA29
:100390000603A4F10C040294009CCDE900B400F023
:1003A000C7F803B0BDE8F08F00200146F9E72DE95A
:1003B000F04D81EA030404F0004B21F0004514469F
:1003C0004FF0000A23F0004150EA050220D054EA21
:1003D00001021DD0C5F30A570246C5F31303C1F34A
:1003E0001300C1F30A5640F4801543F48013A7EBC1
:1003F0000608101BD64608F2FD3873EB050002D341
:1004000008F1010801E092185B41B8F1000F03DA2E
:1004100000200146BDE8F08D00204FF48011064613
:1004200084460EE0171B73EB050705D3121B63EB25
:10043000050306434CEA010C49084FEA30009218C4
:100440005B4150EA0107EDD152EA030012D082EA83
:10045000040083EA0501084305D0101BAB4106D216
:100460000122002306E000224FF0004302E06FF07B
:10047000010253101AEB06004CEB085110EB0A0076
:1004800041EB0B01BDE8F04D00F043B80EB5C10FD4
:1004900080EAE0700844CA07002140F233438DE847
:1004A0000E000A460B4600F043F803B000BD00F012
:1004B000004230F000400AD0C10D01F56071C0F378
:1004C000160042EA0151C20840071143704700205C
:1004D00001467047202A04DB203A00FA02F100208E
:1004E00070479140C2F1200320FA03F31943904072
:1004F0007047202A04DB203A21FA02F000217047DD
:1005000021FA02F3D040C2F120029140084319467B
:10051000704710B5141E73F1000408DA401C41F155
:10052000000192185B411A4301D120F0010010BD77
:100530002DE9F04D92469B4611B1B1FA81F202E0ED
:10054000B0FA80F220329046FFF7C4FF04460F460F
:1005500040EA0A0041EA0B0153465A46084313D0C9
:10056000114653EA010019D0C8F140025046FFF786
:10057000C0FF05460E46504659464246FFF7AAFFC1
:10058000084305D0012004E020463946BDE8F08D3F
:100590000020054346EAE0762C4337430A9863057A
:1005A000E40AA0EB08000022FD0A44EA47540A309E
:1005B00002D500200146E9E7010510196941DDE98E
:1005C000084500196941BDE8F04DA2E7064C074D0A
:1005D00006E0E06840F0010394E807009847103413
:1005E000AC42F6D3FFF716FE601D0008801D000820
:1005F00070B58C1810F8015B15F0070301D110F8E5
:10060000013B2A1106D110F8012B03E010F8016B11
:1006100001F8016B5B1EF9D12B0705D40023521E94
:100620000DD401F8013BFAE710F8013BCB1A921CFC
:1006300003E013F8015B01F8015B521EF9D5A142FA
:10064000D8D3002070BD00BFFEE7704700BFFEE7B3
:1006500000BFFEE7014601EBC1024FF0E0235A6103
:1006600000229A6101221A6100BF4FF0E022106956
:1006700000F001021AB100F48032002AF5D0002205
:100680004FF0E0231A619A6170472DE9F041054669
:100690000C4616464FF000080027002000F00AFF25
:1006A000C5F30721012000F017FFE9B2012000F097
:1006B00013FF0020206000BF012000F09FFE216892
:1006C0000843206020680002206007F1080087B21C
:1006D000B742F1D3012000F0EDFE4046BDE8F081C5
:1006E00010B50446002000F0E5FEC4F30721012008
:1006F00000F0F2FEE1B2012000F0EEFE012000F079
:10070000D9FE002010BD2DE9F04105460E461446E5
:100710000027002000F0CEFEC5F30721012000F0E5
:10072000DBFEE9B2012000F0D7FE00BFA4F1080013
:1007300026FA00F0C1B2012000F0CEFE083C07F11D
:10074000080087B2A742F1D3012000F0B3FE0020D9
:10075000BDE8F08110B518601C68E4031C601C68DB
:1007600044EA82341C601C6844EA41041C6010BDE9
:1007700010601368DB031360136843EA41031360DE
:10078000704700002DE9F04F2DED088B81B0054634
:10079000884691461C4605EB8400061F05EB440085
:1007A000801E009005EBC400A0F108079FED500AE1
:1007B000B0EE408AB8F1080F2DD2DFE808F0040946
:1007C0000E13181D22279FED4B0AB0EE408A27E03A
:1007D0009FED490AB0EE408A22E09FED480AB0EE54
:1007E000408A1DE0B7EE000AB0EE408A18E0B0EE95
:1007F000000AB0EE408A13E0B1EE000AB0EE408A83
:100800000EE0B2EE000AB0EE408A09E0B3EE000A54
:10081000B0EE408A04E09FED370AB0EE408A00BF98
:1008200000BFB9F1180F2CD126E03068000230600B
:10083000D6F800B04FEA2B2B9FED310A28EE000AC4
:1008400010EE101A0846FFF732FE41EC190B58461D
:10085000FFF71CFE41EC1B0B9FED2A0B53EC102BFA
:10086000FFF733FD41EC1A0B53EC192BFFF79FFDFB
:10087000C7E90001361F083F201EA4F10104D4D1AE
:1008800031E0B9F1100F2ED129E00098B0F800A0A6
:100890004FEA0A4AD3464FEA2B2B9FED190A28EE5E
:1008A000000A10EE101A0846FFF701FE41EC190B82
:1008B0005846FFF7EBFD41EC1B0B9FED120B53EC81
:1008C000102BFFF702FD41EC1A0B53EC192BFFF72D
:1008D0006EFDC7E900010098801E0090083F201EB1
:1008E000A4F10104D1D101B0BDEC088BBDE8F08FBB
:1008F00000000000CDCC4C3ECDCCCC3ECDCC4C3F0E
:100900000000804B00000000000024402DE9FC475F
:1009100004460F460020019001260090A068407810
:1009200010B91820387705E0A0684078012801D177
:1009300010203877204600F047FA064616B13046B8
:10094000BDE8FC8710236A463121204600F028FAD2
:100950000646012E03D0009800F4005008B901208B
:10096000EEE7A068B0F804804FF0000906E008F058
:10097000010008B109F101094FEA5808B8F1000F68
:1009800002D0B9F1100FF2D3B868484501D0012068
:10099000D6E700256AE0C5EBC502E06850F82210F2
:1009A000204600F0B6FA06460EB13046C8E7C5EB61
:1009B000C501E06800EB81004079002141EA003088
:1009C000C5EBC503E16801EB8301897940EA0120A9
:1009D000C5EBC503E16801EB8301097A40EA4110E8
:1009E000C5EBC503E16801EB8301097940EA011217
:1009F00010232021204600F048FB06460EB1304669
:100A00009EE7C5EBC501E06800EB8100C0680021EE
:100A100041EAC000C5EBC503E16801EB8301097C35
:100A200040EA010210232121204600F02EFB064659
:100A30000EB1304684E7C5EBC501E06800EB8100EC
:100A40004069002141EA8020C5EBC503E16801EB64
:100A50008301097E40EA412210232221204600F032
:100A600014FB06460EB130466AE76D1CB868A84212
:100A700091D8102301AA3021204600F091F90646B2
:100A80000EB130465CE7019820F010000190A0689C
:100A90008078019941EA00100190019820F020002F
:100AA0000190A0680078019941EA401001900198F6
:100AB00020F480400190A0684078019941EA80309C
:100AC0000190102330212046019A00F0DEFA0646FC
:100AD0000EB1304634E7A0688288102324212046D6
:100AE00000F0D3FA06460EB1304629E7002027E78A
:100AF0002DE9F84305460C462146284600F088FAC1
:100B0000064616B13046BDE8F88371E0A8688078E3
:100B1000012819D10020009013E010236A463121EA
:100B2000284600F03DF906460EB13046EBE7009846
:100B300000F4004000B905E0002000902820FFF7F5
:100B400089FDEAE700BF00BF00274BE0A868807876
:100B5000C8B90020009013E010236A4631212846CE
:100B600000F01EF906460EB13046CCE7009800F4BE
:100B7000004000B905E0002000902820FFF76AFD42
:100B8000EAE700BF00BF207F182808D1206978431A
:100B9000616801EB8000616900EB81080DE0207F56
:100BA000102808D120697843616801EB4000616931
:100BB00000EB410801E00120A5E72820FFF74AFDEE
:100BC000C7EBC702E86830F82200403081B2237FCB
:100BD0004246284600F0E4F806460EB1304692E759
:100BE0006F607F1CA068B842B0D86069401C60612B
:100BF000D4E90410884289D3284600F0FBF9064660
:100C00000EB130467FE7D4F808C0276907FB0CF324
:100C1000227FEF68397A6068FFF7B4FD002072E741
:100C20002DE9F84305460C462146284600F0F0F928
:100C3000074617B13846BDE8F883A86880780128D0
:100C40001DD10020009017E010236A46312128466C
:100C500000F0A6F807460FB13846ECE7009800F41C
:100C6000804020B9009800F4004000B905E0002061
:100C700000902820FFF7EEFCE6E700BF00BF00264B
:100C80003EE0A8688078C8B90020009013E01023E7
:100C90006A463121284600F083F807460FB13846EE
:100CA000C9E7009800F4004000B905E0002000907A
:100CB0002820FFF7CFFCEAE700BF00BF207F1828FD
:100CC00003D1606800EB860808E0207F102803D17C
:100CD000606800EB460801E00120ACE7C6EBC60205
:100CE000E86830F82200403081B2237F424628462F
:100CF00000F056F807460FB138469CE76E60761C48
:100D0000A068B042BDD8227FA368EE68317A6068DF
:100D1000FFF738FD00208EE7F8B506460C460125A2
:100D200000200090002710236A463121304600F051
:100D300037F805460DB12846F8BD0098C0F30317F3
:100D40002146304600F064F905460DB12846F3E728
:100D500010E010236A463121304600F021F80546A4
:100D60000DB12846E8E7009800F4004000B902E021
:100D700000200090EDE700BF237F07F140013046DF
:100D8000626800F00DF805460DB12846D4E7227FD1
:100D9000F368197A01236068FFF7F4FC0020CBE7C1
:100DA000F8B504460F4615461E46002000902188DF
:100DB00088B26B4601223946FFF7CCFC3246294601
:100DC0000098FFF762FCF8BD70B504461421204678
:100DD00000F090F805464CF25030FFF73BFC2846F7
:100DE00070BD2DE9F04106460C462146304600F024
:100DF0000FF9054615B12846BDE8F08123E0207FB4
:100E0000182804D16169606800EB810709E0207F40
:100E1000102804D16169606800EB410701E00120FE
:100E2000EAE72820FFF716FC237FB088403081B224
:100E30003A463046FFF7B4FF05460DB12846DBE7DA
:100E40006069401C6061D4E904108842D7D3304601
:100E500000F0D0F805460DB12846CDE7227F236982
:100E6000D6F80CC09CF808106068FFF78BFC0020D7
:100E7000C2E7F8B506460C46002701250020009081
:100E80002146304600F0C4F805460DB12846F8BDAD
:100E900019E0781CC7B210236A4631213046FFF7AB
:100EA0007FFF05460DB12846F1E7009800F40040A9
:100EB00000B909E0142F01D30120E8E700200090D9
:100EC0002820FFF7C7FBE4E700BF237FB08840304E
:100ED00081B230466268FFF763FF05460DB12846D0
:100EE000D5E7227FF368197A01236068FFF74AFC8F
:100EF0000020CCE738B504460D460020009021883C
:100F000088B26A462946FFF733FC0098FFF7E8FBF2
:100F100038BD70B504460D4629462046FFF7EAFF66
:100F200006466560304670BDF8B506460C4601259C
:100F3000002000906061E06010236A463121304655
:100F4000FFF72EFF0546012D03D0009800F4005056
:100F500008B90120F8BD2078062846D2DFE800F065
:100F6000450315393F277068A169884207D030468C
:100F7000A169FFF7CEFF05460DB12846EAE72146F5
:100F80003046FFF776FF054631E07068A169884278
:100F900007D03046A169FFF7BCFF05460DB12846D2
:100FA000D8E721463046FFF71CFF05461FE0307C9E
:100FB0002178884207D03046A169FFF7AAFF05468D
:100FC0000DB12846C6E721463046FFF7A5FE054687
:100FD0000DE021463046FFF723FE054607E0214697
:100FE0003046FFF785FD054601E0012500BF00BF43
:100FF0002846AFE770B5044610212046FFF77AFF78
:1010000005460220FFF726FB00202074284670BD0D
:101010002DE9F04105460C460026012720780628D8
:1010200023D2DFE800F022031011120400BF207861
:10103000401E00F5005631462846FFF75BFF074685
:10104000207828741DE000BF00BF287C21788842EA
:101050000AD02078401E00F5005631462846FFF79A
:1010600049FF0746207828740BE02078401E00F5E1
:10107000005631462846FFF73DFF07462078287482
:1010800000BF00BF3846BDE8F081F8B504460F4602
:1010900015461E4600200090218888B26B4600222B
:1010A0003946FFF757FB324629460098FFF72BFBDE
:1010B000F8BD704770477047704700001F480068D0
:1010C00040F470001D4908601D48006820F00100D0
:1010D000401C1B49086000BF19480068C0F340006D
:1010E0000028F9D016480830006820F003001449A1
:1010F0000831086000BF124808300068C0F3810062
:101100000028F8D10E4800680E4908400C490860D4
:1011100000200B49083108600B48091F08600020B7
:101120000749A03108604FF41F0005490C310860E1
:101130004FF00060014980390860704788ED00E099
:1011400000380240FFFFF2FE0230030000BFFEE75E
:1011500002E008C8121F08C1002AFAD17047704780
:10116000002001E001C1121F002AFBD170470000DE
:101170002DE9FC4706460F4614461D46DDE90AA840
:10118000DDF8309000F0F0F8684600F04BFC37B125
:10119000012F0AD0022F0FD0032F1AD113E0002005
:1011A0008DF805008DF8060013E000208DF805008D
:1011B00001208DF806000CE001208DF805000020CC
:1011C0008DF8060005E001208DF805008DF8060079
:1011D00000BF00BFBAF1000F09D0BAF1010F0AD069
:1011E000BAF1020F0BD0BAF1030F10D10BE00020BF
:1011F0008DF800000BE001208DF8000007E00220D0
:101200008DF8000003E003208DF8000000BF00BF50
:10121000012D03D101208DF8010003E015B9002054
:101220008DF801000B2C33D2DFE804F0060A0E1211
:10123000161A1E22262A2E0009208DF8020027E009
:1012400008208DF8020023E007208DF802001FE03F
:1012500006208DF802001BE005208DF8020017E043
:1012600004208DF8020013E003208DF802000FE047
:1012700002208DF802000BE001208DF8020007E04B
:101280000A208DF8020003E000208DF8020000BF64
:1012900000BFB9F1000F03D101208DF8030005E074
:1012A000B9F1010F02D100208DF80300B8F1000F51
:1012B00003D100208DF8040005E0B8F1010F02D140
:1012C00001208DF8040001208DF8070036B1012EB1
:1012D00011D0022E1CD0032E36D127E001211C484C
:1012E00000F0E4F969461B4800F0BAFB01211948F7
:1012F00000F0A3FB28E00121174800F0D7F9694668
:10130000164800F0ADFB0121144800F096FB1BE0ED
:1013100001211148401C00F0C9F96946104800F04D
:101320009FFB01210E4800F088FB0DE001210848D9
:10133000401C00F0BBF969460A4800F091FB01210E
:10134000084800F07AFB00BF00BFBDE8FC87000042
:101350000C004400003001400E0040000038004006
:10136000003C0040003401401CB50121214800F040
:101370009DF9684600F04AFA00208DF8040001202B
:101380008DF8070002208DF805008DF80600000397
:1013900000906946184800F043FA05220D211648CE
:1013A00000F07BFA01208DF805008003009069466B
:1013B000114800F035FA05220E210F4800F06DFAB1
:1013C00001208DF80500C003009069460A4800F02E
:1013D00027FA05220F21084800F05FFA01208DF856
:1013E00005008DF80600000300906946024800F0F1
:1013F00017FA1CBD010030000004024070B504461D
:101400000025204600F010F8C5B2284670BD000047
:1014100010B504460348006818B120460149096820
:10142000884710BD3401002070B5044600255CB922
:1014300000BF01211B4800F00BFB0028F9D0194820
:1014400000F000FB054628E0012C0BD100BF012174
:10145000154800F0FDFA0028F9D0134800F0F2FA20
:1014600005461AE0022C0BD100BF01210F4800F005
:10147000EFFA0028F9D00D4800F0E4FA05460CE038
:10148000032C0AD100BF0121094800F0E1FA00282D
:10149000F9D0074800F0D6FA05462046FFF7B8FF16
:1014A000284670BD0030014000380040003C00403C
:1014B0000034014010B504462CB94FF48051054862
:1014C00000F0A0F904E04FF48051024800F09CF9CC
:1014D00010BD00000004024070B504460D462946C8
:1014E000204600F00DF870BD10B5044603480068B2
:1014F00018B1204601490968884710BD3001002015
:1015000070B504460D465CB900BF02211B4800F0CF
:101510009FFA0028F9D02946184800F097FA28E0E9
:10152000012C0BD100BF0221144800F091FA0028D1
:10153000F9D02946114800F089FA1AE0022C0BD1A3
:1015400000BF02210D4800F083FA0028F9D0294697
:101550000A4800F07BFA0CE0032C0AD100BF0221FC
:10156000064800F075FA0028F9D02946034800F033
:101570006DFA2046FFF7B8FF70BD00000030014053
:101580000349096860F30711014A116070470000C0
:10159000083802400349096860F38C21014A116050
:1015A00070470000083802400349096860F34F3172
:1015B000014A11607047000008380240012807D135
:1015C0000749096821F030013031054A116005E012
:1015D0000349096821F03001014A11607047000099
:1015E000A438024005282BD2DFE800F0030A1118C6
:1015F0002100154A126861F30002134B1A6020E0C3
:10160000114A126861F310420F4B1A6019E00E4A3A
:10161000126861F318620C4B1A6012E00A4A7032C9
:10162000126861F30002084B70331A6009E0064A41
:101630007432126861F30002034B74331A6000E0E5
:1016400000BF00BF704700000038024010B50146DF
:101650000020094B03EB1142D2F8002801F01F04CF
:101660000123A3401A4001F01F040123A3409A4222
:1016700000D000E0012010BD0030024030B5002451
:10168000002500E0641C1120FFF7E0FF012802D0D4
:10169000B4F5405FF6D31120FFF7D8FF012801D041
:1016A000002500E00125284630BD000010B50129C5
:1016B0000FD1104B03EB1042D2F8002800F01F04AA
:1016C0000123A3401A430B4C04EB1043C3F800283A
:1016D0000EE0084B03EB1042D2F8002800F01F0484
:1016E0000123A3409A43034C04EB1043C3F80028A2
:1016F00010BD00000030024030B538B90F4C2468EE
:1017000024F4805404F580540C4D2C600B4C9C3C0C
:10171000246860F39654094D9C3D2C602C46246847
:1017200061F38E142C602C46246862F303042C6051
:101730002C46246863F312442C6030BDA03802406C
:101740001A48006820F00100401C1849086000BFDA
:1017500016480068C0F340000028F9D0134808304C
:10176000006820F0030011490831086000BF0F48ED
:1017700008300068C0F381000028F8D10B480068E9
:101780000B490840094908600020084908310860F1
:101790000848091F086000200449A03108604FF480
:1017A0001F0002490C3108607047000000380240F9
:1017B000FFFFF2FE023003000D49096860F30101EA
:1017C0000B4A116000BF00BF00BF00BF00BF00BFD9
:1017D00000BF00BF00BF00BF00BF00BF00BF00BF11
:1017E00000BF00BF00BF00BF00BF00BF70470000C8
:1017F0000838024002480068C0F3810070470000CA
:101800000838024081627047816170474FF6FF716E
:10181000016000218171017141710121C171704725
:1018200070B50A4600211488A3B233E003F0010426
:101830006CB304684E000325B540AC430460947952
:101840004D00AC4005682C430460446801258D4080
:10185000AC434460446815798D402C4344608468EF
:101860004E000325B540AC438460D4794D00AC40B4
:1018700085682C438460C4684E000325B540AC43A2
:10188000C46054794D00AC40C5682C43C4605B1003
:101890004C1CA1B2002BC9DC70BDF0B500230024A4
:1018A0004D07ED0E02FA05F3CD105DB1456A4E0706
:1018B000F70E0F26BE40B5434562456A45EA03046C
:1018C00044620AE0056A4E07F70E0F26BE40B54394
:1018D0000562056A45EA03040462F0BD90B000BFEA
:1018E00040216846FEF7E6FC00F066F900F00EF8CD
:1018F0006B4601220021084600F01EF86B46FF22CD
:101900000021022000F018F800BFFEE70EB500F03D
:101910004BF801200021009103460422CDE901107B
:101920000146FFF725FC02490248FEF7EFFF0EBD16
:1019300010010020F00000202DE9F04104460D4682
:1019400016461F464FF00108052C18D2DFE804F0B8
:101950000F0B070313000420114908700FE0032048
:101960000F4908700BE002200D49087007E00120C4
:101970000B49087003E005200949087000BF00BF4B
:1019800008488068868006488561476001460548AA
:10199000FFF7CAFA1FFA80F84046BDE8F081000060
:1019A00010010020F00000201CB501211B48FFF7AA
:1019B0007DFE01211948001FFFF778FE6846FFF7FA
:1019C00025FF01208DF8050000208DF806004FF45A
:1019D0008060009069461248FFF722FF00208DF8D2
:1019E000040001208DF807008DF805008DF8060031
:1019F0004002009069460A48FFF712FF01208DF867
:101A0000040000208DF805008DF8060008200090E5
:101A100069460348FFF704FF1CBD000007003000C3
:101A2000000C02400021017041708170C170017191
:101A3000417181710121C1717047026861F38612A1
:101A4000026070470146C86880B27047C160704745
:101A50000246002093680B4003B900E00120704764
:101A6000C26922F40062C2610A7862B9026822F493
:101A700000420260026822F480420260026822F49E
:101A80008062026036E00A78012A0ED1026822F4F0
:101A900000420260026822F480420260026822F47E
:101AA000806202F58062026024E00A78022A0ED188
:101AB000026822F4004202F500420260026822F449
:101AC00080420260026822F48062026012E00A78BA
:101AD000032A0FD1026822F4004202F5004202609C
:101AE000026822F4804202F580420260026822F419
:101AF00080620260CB79026863F3492202604A780F
:101B0000012A09D1CA79012A06D1026822F4807219
:101B100002F58072026003E0026822F480720260C3
:101B20004B78026863F3820202608A78072A0DDC30
:101B3000426822F400724260426822F4807242607D
:101B40008B78026863F3C502026020E08A780A2A73
:101B50000ED1426822F4007202F5007242604268BF
:101B600022F480724260026822F0380202600EE0C5
:101B7000426822F400724260426822F4807202F5E8
:101B8000807242608A78036862F3C5030360CB7891
:101B9000026863F3C71202600B79026863F3CB2219
:101BA00002604B79026863F3410202608B7902683C
:101BB00063F300020260704710B5FFF7C1FD012119
:101BC0002148FFF773FD2148006920F00700401C01
:101BD0001E4908611E48006820F00300401C1C4993
:101BE000086001210846FFF7FDFC00BFFFF746FD36
:101BF0000028FBD00223012290211046FFF77CFD34
:101C000001210220FFF7EEFC00BF1920FFF71EFDA7
:101C10000128FAD10020FFF7B3FC0420FFF7C4FC31
:101C20000420FFF7B7FC0120FFF7C8FC0220FFF7F4
:101C3000C3FD00BFFFF7DEFD0228FBD10020FFF748
:101C4000BDFC00F007F810BD1C0040000070004013
:101C5000603C02402DE9FC5F002400250026A146DF
:101C6000A246A34600200190FFF7C4FD0090009813
:101C700020B1012814D0022841D115E02B4800687A
:101C8000C0F3803040B129480068C0F3003018B17B
:101C900027482849086002E027482649086032E0C2
:101CA0002648244908602EE020489C380068C0F38C
:101CB00080591E489C380068C0F388141B489C3823
:101CC000006800F00F0519489C380068C0F3024016
:101CD0001B490E5CB9F1000F02D1DFF85CA001E0F6
:101CE000DFF858A005FB06FCAAFB0470014662461B
:101CF00000233846FEF7A6FA0E49086003E00E48B6
:101D00000C49086000BF00BF084898380068C0F35D
:101D1000031B0C4810F80B0001900648006801995D
:101D2000C84004490860BDE8FC9F0000A03802409C
:101D3000006CDC020000002000127A0040787D0177
:101D4000581D0008481D00080000000000000000A9
:101D5000010203040607080901020408102000001C
:101D6000801D00080000002038010000F005000878
:101D7000D01D000838010020000400006011000898
:101D80001193127A72FF2301013202F2041917191A
:101D9000040A13011C29140916380A1903382910DA
:101DA0001A011909121C3A05380A13021C2A061CCA
:101DB000195909121C3A07380A13031C8122081BFF
:101DC00020100409131C12011A202079F4011400B8
:040000050800020DE0
:00000001FF
