:020000040800F2
:100000000804002021020008170300080F0300085D
:100010001303000809030008B103000800000000F2
:100020000000000000000000000000001B030008AA
:100030000D03000800000000190300081D0300085C
:100040003B0200083B0200083B0200083B0200089C
:100050003B0200083B0200083B0200083B0200088C
:100060003B0200083B0200083B0200083B0200087C
:100070003B0200083B0200083B0200083B0200086C
:100080003B0200083B0200083B0200083B0200085C
:100090003B0200083B0200083B0200083B0200084C
:1000A0003B0200083B0200083B0200083B0200083C
:1000B0003B0200083B0200083B0200083B0200082C
:1000C0003B0200083B0200083B0200083B0200081C
:1000D0003B0200083B0200083B0200083B0200080C
:1000E0003B0200083B0200083B0200083B020008FC
:1000F0003B0200083B0200083B0200083B020008EC
:100100003B0200083B0200083B0200083B020008DB
:100110003B0200083B0200083B0200083B020008CB
:100120003B0200083B0200083B0200083B020008BB
:100130003B0200083B0200083B0200083B020008AB
:100140003B0200083B0200083B0200083B0200089B
:100150003B0200083B020008000000003B020008D0
:100160003B0200083B020008000000000000000005
:100170003B0200083B0200083B02000800000000B0
:10018000000000003B0200083B0200083B020008A0
:100190003B0200080000000000000000000000001A
:1001A0000000000000000000000000003B0200080A
:1001B0003B020008000000003B02000800000000B5
:1001C000000000000000000000000000000000002F
:1001D00000000000000000003B0200083B02000895
:1001E0003B0200083B0200083B0200083B020008FB
:1001F0003B0200083B0200083B0200083B020008EB
:100200003B0200083B0200083B020008DFF80CD06C
:1002100000F068F80048004759060008080400206C
:100220000648804706480047FEE7FEE7FEE7FEE790
:10023000FEE7FEE7FEE7FEE7FEE7FEE72103000834
:100240000D0200082DE9F05F0546002092469B460E
:1002500088460646814640241BE0284641464746DC
:10026000224600F02FF853465A46C01A914110D347
:1002700011461846224600F016F82D1A67EB0108C1
:100280004F4622460120002100F00DF817EB00092F
:100290004E41201EA4F10104DFDC484631462A46C7
:1002A0004346BDE8F09F202A04DB203A00FA02F121
:1002B000002070479140C2F1200320FA03F3194354
:1002C00090407047202A04DB203A21FA02F00021F6
:1002D000704721FA02F3D040C2F120029140084356
:1002E00019467047064C074D06E0E06840F00103F0
:1002F00094E8070098471034AC42F6D3FFF78AFF22
:10030000040800082408000800BFFEE7704700BF8B
:10031000FEE700BFFEE77047704770477047000078
:100320001F48006840F470001D4908601D480068BF
:1003300020F00100401C1B49086000BF19480068FC
:10034000C0F340000028F9D016480830006820F0BB
:10035000030014490831086000BF124808300068E3
:10036000C0F381000028F8D10E4800680E4908400B
:100370000C49086000200B49083108600B48091F30
:10038000086000200749A03108604FF41F000549AC
:100390000C3108604FF000600149803908607047F7
:1003A00088ED00E000380240FFFFF2FE023003005B
:1003B00000BFFEE702E008C8121F08C1002AFAD1F8
:1003C00070477047002001E001C1121F002AFBD1D5
:1003D000704700000349096860F30711014A116082
:1003E00070470000083802400349096860F38C2117
:1003F000014A11607047000008380240034909684B
:1004000060F34F31014A1160704700000838024024
:10041000012807D10749096821F030013031054A28
:10042000116005E00349096821F03001014A1160BB
:1004300070470000A438024005282BD2DFE800F006
:10044000030A11182100154A126861F30002134BC8
:100450001A6020E0114A126861F310420F4B1A60D3
:1004600019E00E4A126861F318620C4B1A6012E030
:100470000A4A7032126861F30002084B70331A6046
:1004800009E0064A7432126861F30002034B7433C8
:100490001A6000E000BF00BF704700000038024053
:1004A00010B501460020094B03EB1142D2F8002899
:1004B00001F01F040123A3401A4001F01F0401238F
:1004C000A3409A4200D000E0012010BD003002405D
:1004D00030B50024002500E0641C1120FFF7E0FF88
:1004E000012802D0B4F5405FF6D31120FFF7D8FF02
:1004F000012801D0002500E00125284630BD00007C
:1005000010B501290FD1104B03EB1042D2F800288F
:1005100000F01F040123A3401A430B4C04EB1043CB
:10052000C3F800280EE0084B03EB1042D2F8002875
:1005300000F01F040123A3409A43034C04EB104333
:10054000C3F8002810BD00000030024030B538B9B3
:100550000F4C246824F4805404F580540C4D2C6016
:100560000B4C9C3C246860F39654094D9C3D2C60D8
:100570002C46246861F38E142C602C46246862F3A8
:1005800003042C602C46246863F312442C6030BDB5
:10059000A03802401A48006820F00100401C1849A9
:1005A000086000BF16480068C0F340000028F9D07A
:1005B00013480830006820F0030011490831086032
:1005C00000BF0F4808300068C0F381000028F8D150
:1005D0000B4800680B490840094908600020084999
:1005E000083108600848091F086000200449A0314C
:1005F00008604FF41F0002490C310860704700008A
:1006000000380240FFFFF2FE023003000D49096886
:1006100060F301010B4A116000BF00BF00BF00BFC3
:1006200000BF00BF00BF00BF00BF00BF00BF00BFD2
:1006300000BF00BF00BF00BF00BF00BF00BF00BFC2
:10064000704700000838024002480068C0F381008B
:10065000704700000838024000F002F800BFFEE7D3
:1006600010B5FFF797FF01212148FFF749FF214807
:10067000006920F00700401C1E4908611E48006800
:1006800020F00300401C1C49086001210846FFF7C8
:10069000D3FE00BFFFF71CFF0028FBD0022301227E
:1006A00090211046FFF752FF01210220FFF7C4FE00
:1006B00000BF1920FFF7F4FE0128FAD10020FFF750
:1006C00089FE0420FFF79AFE0420FFF78DFE01202B
:1006D000FFF79EFE0220FFF799FF00BFFFF7B4FF70
:1006E0000228FBD10020FFF793FE00F007F810BDB1
:1006F0001C00400000700040603C02402DE9FC5F9F
:10070000002400250026A146A246A3460020019011
:10071000FFF79AFF0090009820B1012814D002281A
:1007200041D115E02B480068C0F3803040B1294822
:100730000068C0F3003018B127482849086002E07B
:1007400027482649086032E02548244908602EE001
:1007500020489C380068C0F380591E489C380068C7
:10076000C0F388141B489C38006800F00F05194836
:100770009C380068C0F302401A490E5CB9F1000FC2
:1007800002D1DFF85CA001E0DFF854A005FB06FC15
:10079000AAFB04700146624600233846FFF752FD6B
:1007A0000E49086003E00E480C49086000BF00BF16
:1007B000084898380068C0F3031B0B4810F80B007A
:1007C0000190064800680199C84004490860BDE8E6
:1007D000FC9F0000A0380240006CDC0200000020FA
:1007E00000127A00FC070008EC0700080000000077
:1007F00000000000010203040607080901020408C2
:100800001020000024080008000000200400000060
:10081000B4030008280800080400002004040000B5
:08082000C403000800127A0075
:040000050800020DE0
:00000001FF
