:020000040800F2
:100000002805002021020008A5140008F9050008B1
:10001000FD050008F1050008DD16000800000000DD
:100020000000000000000000000000001D16000895
:10003000F505000800000000A914000821160008BA
:100040003B0200083B0200083B0200083B0200089C
:100050003B0200083B0200083B0200083B0200088C
:100060003B0200083B0200083B0200083B0200087C
:100070003B0200083B0200083B0200083B0200086C
:100080003B0200083B0200083B0200083B0200085C
:100090003B0200083B0200083B0200083B0200084C
:1000A0003B0200083B0200083B0200083B0200083C
:1000B0003B0200083B0200083B0200083B0200082C
:1000C0003B0200083B0200083B0200083B0200081C
:1000D0003B0200083B0200083B0200083B0200080C
:1000E0003B0200083B0200083B0200083B020008FC
:1000F0003B0200083B0200083B0200083B020008EC
:100100003B0200083B0200083B0200083B020008DB
:100110003B0200083B0200083B0200083B020008CB
:100120003B0200083B0200083B0200083B020008BB
:100130003B0200083B0200083B0200083B020008AB
:100140003B0200083B0200083B0200083B0200089B
:100150003B0200083B020008000000003B020008D0
:100160003B0200083B020008000000000000000005
:100170003B0200083B0200083B02000800000000B0
:10018000000000003B0200083B0200083B020008A0
:100190003B0200080000000000000000000000001A
:1001A0000000000000000000000000003B0200080A
:1001B0003B020008000000003B02000800000000B5
:1001C000000000000000000000000000000000002F
:1001D00000000000000000003B0200083B02000895
:1001E0003B0200083B0200083B0200083B020008FB
:1001F0003B0200083B0200083B0200083B020008EB
:100200003B0200083B0200083B020008DFF80CD06C
:1002100000F0DCF900480047A11F00082805002075
:100220000648804706480047FEE7FEE7FEE7FEE790
:10023000FEE7FEE7FEE7FEE7FEE7FEE7251600081D
:100240000D0200082DE9F05F0546002092469B460E
:1002500088460646814640241BE0284641464746DC
:10026000224600F046F953465A46C01A914110D32F
:1002700011461846224600F02DF92D1A67EB0108A9
:100280004F4622460120002100F024F917EB000917
:100290004E41201EA4F10104DFDC484631462A46C7
:1002A0004346BDE8F09FD2B201E000F8012B491EA1
:1002B000FBD270470022F6E710B513460A46044603
:1002C0001946FFF7F0FF204610BD2DE9FE4F81EAE9
:1002D000030404F0004421F0004100944FF0000BAF
:1002E00023F0004350EA01045ED052EA03045BD0DD
:1002F000C3F30A54C1F30A552C44A4F2F334019415
:10030000A0FB0254C1F3130141F48011C3F31303A2
:1003100043F4801301FB024400FB034E840A970A56
:1003200044EA815447EA8357A4FB076802958D0A83
:1003300005FB07854FEA932C04FB0C542705029D0F
:100340004FEA065847EA1637B5EB08056EEB070C7F
:10035000870E920E47EA811742EA8312A7FB020139
:10036000B6EB0B0164EB00042B0D43EA0C335E1873
:1003700044EB1C50DA465146E7FB0201C5F3130477
:100380004FEA0B3343EA14534FEA0432019C43EA29
:100390000603A4F10C040294009CCDE900B400F023
:1003A000C7F803B0BDE8F08F00200146F9E72DE95A
:1003B000F04D81EA030404F0004B21F0004514469F
:1003C0004FF0000A23F0004150EA050220D054EA21
:1003D00001021DD0C5F30A570246C5F31303C1F34A
:1003E0001300C1F30A5640F4801543F48013A7EBC1
:1003F0000608101BD64608F2FD3873EB050002D341
:1004000008F1010801E092185B41B8F1000F03DA2E
:1004100000200146BDE8F08D00204FF48011064613
:1004200084460EE0171B73EB050705D3121B63EB25
:10043000050306434CEA010C49084FEA30009218C4
:100440005B4150EA0107EDD152EA030012D082EA83
:10045000040083EA0501084305D0101BAB4106D216
:100460000122002306E000224FF0004302E06FF07B
:10047000010253101AEB06004CEB085110EB0A0076
:1004800041EB0B01BDE8F04D00F043B80EB5C10FD4
:1004900080EAE0700844CA07002140F233438DE847
:1004A0000E000A460B4600F043F803B000BD00F012
:1004B000004230F000400AD0C10D01F56071C0F378
:1004C000160042EA0151C20840071143704700205C
:1004D00001467047202A04DB203A00FA02F100208E
:1004E00070479140C2F1200320FA03F31943904072
:1004F0007047202A04DB203A21FA02F000217047DD
:1005000021FA02F3D040C2F120029140084319467B
:10051000704710B5141E73F1000408DA401C41F155
:10052000000192185B411A4301D120F0010010BD77
:100530002DE9F04D92469B4611B1B1FA81F202E0ED
:10054000B0FA80F220329046FFF7C4FF04460F460F
:1005500040EA0A0041EA0B0153465A46084313D0C9
:10056000114653EA010019D0C8F140025046FFF786
:10057000C0FF05460E46504659464246FFF7AAFFC1
:10058000084305D0012004E020463946BDE8F08D3F
:100590000020054346EAE0762C4337430A9863057A
:1005A000E40AA0EB08000022FD0A44EA47540A309E
:1005B00002D500200146E9E7010510196941DDE98E
:1005C000084500196941BDE8F04DA2E7064C074D0A
:1005D00006E0E06840F0010394E807009847103413
:1005E000AC42F6D3FFF716FE88250008A8250008C0
:1005F000FFE7FEE770470000FFE7FEE7FFE7FEE7E3
:1006000083B00290029800EBC0004EF21401CEF2CB
:10061000000108604EF21801CEF2000100200860CF
:100620004EF21001CEF2000101200860FFE74EF209
:100630001000CEF2000000680190FFE700209DF856
:100640000410C907009031B1FFE79DF806100120A2
:1006500088430090FFE70098C0070028E7D1FFE734
:100660004EF21001CEF20001002008604EF2180197
:10067000CEF20001086003B07047000080B58CB076
:100680000B900A910992002006900890ADF81E0088
:1006900001F0A8F99DF82D100120059000F006FF4B
:1006A00005989DF82C1000F001FF06980A99086043
:1006B0000998182825D1FFE701200490FF21039114
:1006C00000F0F4FE0399024604980A9B1A600A9B04
:1006D0001A6812021A6000F0E9FE03998446049831
:1006E0000A9B1A6842EA0C021A600A9B1A681202F4
:1006F0001A6000F0DBFE02460A99086810430860A1
:1007000027E00998102817D1FFE701200290FF2168
:10071000019100F0CBFE0199024602980A9B1A60F3
:100720000A9B1A6812021A6000F0C0FE02460A997B
:100730000868104308600BE00998082807D1FFE714
:100740000120FF2100F0B2FE0A990860FFE7FFE7F1
:10075000FFE7012001F046F908980CB080BD0000C9
:1007600080B584B003900020029001F03BF99DF821
:100770000D100120019000F099FE01989DF80C10D9
:1007800000F094FE019801F02DF9029804B080BDAC
:1007900080B588B00790069105920020ADF8120050
:1007A00001F020F99DF81D100120039000F07EFE5D
:1007B00003989DF81C1000F079FE0598182811D1B7
:1007C000FFE79DF81A100120029000F06FFE0298DA
:1007D0009DF8191000F06AFE02989DF8181000F0BC
:1007E00065FE1BE0059810280CD1FFE79DF8191055
:1007F0000120019000F05AFE01989DF8181000F0B9
:1008000055FE0AE00598082806D1FFE79DF8181064
:10081000012000F04BFEFFE7FFE7FFE7012001F0BA
:10082000E1F8002008B080BD83B0ADF80A00ADF853
:1008300008108DF807200093BDF80A0000990860A1
:1008400000990868C00308609DF8072000990868AF
:1008500040EA82300860BDF808200099086840EA44
:100860004200086003B0704783B0ADF80A00019100
:100870000092BDF80A000099086000990868C0035A
:100880000860019A0099086840EA4200086003B0D5
:10089000704700000000000080B58EB00D908DF80C
:1008A00033108DF832200B930D980B9900EB8100DB
:1008B00004380A900D980B9900EB4100023809901A
:1008C0000D980B9900EBC1000838089000200590A6
:1008D0009DF833000146049107282CD80499DFE8DD
:1008E00001F0040A10161A1E22264CF6CD40C3F65B
:1008F0004C60059025E04CF6CD40C3F6CC600590E9
:100900001FE04CF6CD40C3F64C70059019E04FF057
:100910007E50059015E04FF08040059011E04FF0BB
:10092000814005900DE04FF08240059009E04FF0C6
:100930008340059005E04CF6CD40C3F64C60059031
:10094000FFE79DF83200182842D1FFE7FFE70B9838
:10095000411E0B91D8B3FFE70A99086800020860AE
:100960000A98006807900798001207900798FFF709
:100970008DFD41EC100B9FED3C1B53EC112B51EC0A
:10098000100BFFF7A2FC41EC100B8DED020B9DED5F
:10099000050A9FED371A20EE010A10EE100AFFF744
:1009A00086FD9DED020B41EC110B53EC112B51EC2C
:1009B000100BFFF7FCFC41EC100B089880ED000BCE
:1009C0000A9804380A90089808380890BFE748E069
:1009D0009DF83200102843D1FFE7FFE70B98411E36
:1009E0000B91E0B3FFE70998008806900698000491
:1009F0000690069807900798001207900798FFF74F
:100A000045FD41EC100B9FED181B53EC112B51ECE5
:100A1000100BFFF75AFC41EC100B8DED000B9DED18
:100A2000050A9FED131A20EE010A10EE100AFFF7D7
:100A30003EFD9DED000B41EC110B53EC112B51ECE5
:100A4000100BFFF7B4FC41EC100B089880ED000B85
:100A5000099802380990089808380890BEE7FFE71F
:100A6000FFE70EB080BD00BF000000000000244082
:100A70000000804B80B58AB0089007910020069056
:100A800001210391029008988068407820B9FFE71F
:100A90000799182008770AE00898806840780128AC
:100AA00004D1FFE7079910200877FFE7FFE70898D0
:100AB00000F0F6FA0390039818B1FFE70398099045
:100AC000F5E00898312102AA102300F0CFFA039034
:100AD0000398012806D0FFE79DF80900800600284A
:100AE00003D4FFE701200990E1E00898806880883E
:100AF000059000200490FFE705990020009039B18F
:100B0000FFE704990020102938BF01200090FFE77B
:100B10000098C00768B1FFE79DF81400C00720B136
:100B2000FFE7049801300490FFE70598400805901E
:100B3000E2E7049807998968884203D0FFE701201B
:100B40000990B4E000200190FFE7019807998968B7
:100B5000884260D2FFE70898C168019AC2EBC202DE
:100B600051F8221000F07EFB0390039818B1FFE7C4
:100B7000039809909BE00898C168019AC2EBC202F1
:100B800001EB82031A79597993F806C01B7A09039D
:100B900041EA0C2141EA431141EA021220211023CB
:100BA00000F066FC0390039818B1FFE703980990E2
:100BB0007DE00898C168019AC2EBC20201EB820194
:100BC000CA68097C41EAC2022121102300F050FCCE
:100BD0000390039818B1FFE70398099067E008981D
:100BE000C168019AC2EBC20201EB8202516989021B
:100BF000127E41EA42222221102300F039FC0390A8
:100C0000039818B1FFE70398099050E0FFE70198B7
:100C10000130019099E70898302106AA102300F0CE
:100C200025FA0390039818B1FFE7039809903EE076
:100C3000069820F010000690089880688178069841
:100C400040EA01100690069820F0200006900898CF
:100C500080680178069840EA41100690069820F4D2
:100C600080400690089880684178069840EA813074
:100C700006900898069A3021102300F0F9FB0390A3
:100C8000039818B1FFE70398099010E0089881686D
:100C90008A882421102300F0EBFB0390039818B1FD
:100CA000FFE70398099002E000200990FFE7099808
:100CB0000AB080BD80B588B0069005910698059968
:100CC00000F082FB0390039818B1FFE703980790A8
:100CD000BCE0FFE7059801694069884280F09C808C
:100CE000FFE706988068807801281ED1FFE7002082
:100CF0000290FFE70698312102AA102300F0B6F90E
:100D00000390039818B1FFE7039807909EE09DF8C1
:100D100009000006002801D4FFE705E0002002904A
:100D20002820FFF76DFCE5E7FFE700200190FFE7D3
:100D3000019805998968884269D2FFE7069880681A
:100D40008078F0B9FFE700200090FFE70698312196
:100D50006A46102300F08AF90390039818B1FFE760
:100D60000398079072E09DF801000006002801D466
:100D7000FFE705E0002000902820FFF741FCE5E7B1
:100D8000FFE70598007F18280CD1FFE70599019B24
:100D900048680A6949695A4300EB820000EB810008
:100DA000049014E00598007F10280CD1FFE7059906
:100DB000019B48680A6949695A4300EB420000EB0D
:100DC0004100049002E0012007903FE0FFE7282067
:100DD000FFF716FC0698C168019AC2EBC20251F8EF
:100DE00022104031049A059B1B7F89B200F03EF926
:100DF0000390039818B1FFE70398079026E0019845
:100E000006994860FFE701980130019090E7059945
:100E10004869013048615DE7069800F0C3FA039025
:100E2000039818B1FFE7039807900FE0059B069819
:100E3000C068017A1A7F5868D3F808C01B6903FBA1
:100E40000CF3FFF729FD00200790FFE7079808B093
:100E500080BD000080B588B0069005910698059980
:100E600000F0B2FA0390039818B1FFE703980790D7
:100E70009AE0069880688078012824D1FFE7002056
:100E80000290FFE70698312102AA102300F0EEF845
:100E90000390039818B1FFE70398079084E09DF84A
:100EA00009004006002807D4FFE79DF80900000666
:100EB000002801D4FFE705E0002002902820FFF77A
:100EC0009FFBDFE7FFE700200190FFE7019805990E
:100ED000896888425CD2FFE7069880688078F0B91C
:100EE000FFE700200090FFE7069831216A461023B3
:100EF00000F0BCF80390039818B1FFE7039807903F
:100F000052E09DF801000006002801D4FFE705E04B
:100F1000002000902820FFF773FBE5E7FFE7059826
:100F2000007F182807D1FFE705984068019900EB7A
:100F3000810004900FE00598007F102807D1FFE79B
:100F400005984068019900EB4100049002E00120FF
:100F5000079029E0FFE70698C168019AC2EBC20238
:100F600051F822104031049A059B1B7F89B200F092
:100F70007DF80390039818B1FFE70398079013E0FA
:100F8000019806994860FFE70198013001909DE7BC
:100F9000059B0698C068017A1A7F58689B68FFF71E
:100FA0007BFC00200790FFE7079808B080BD000099
:100FB00080B586B00490039101200290002001903A
:100FC0008DF803000498312101AA102300F04EF897
:100FD0000290029818B1FFE70298059043E09DF84F
:100FE000040000098DF803000498039900F0ECF95F
:100FF0000290029818B1FFE70298059033E0FFE7EE
:101000000498312101AA102300F030F802900298D0
:1010100018B1FFE70298059025E09DF8050000064D
:10102000002801D4FFE702E000200190E8E70498DF
:101030009DF803104031039B5A681B7F00F016F89F
:101040000290029818B1FFE7029805900BE0039A0E
:1010500050680499C968097A127F0123FFF71CFCC4
:1010600000200590FFE7059806B080BD80B586B0EA
:101070000590ADF8121003928DF80B30002001900E
:1010800005980088BDF81210012201ABFFF7CCFBD8
:10109000019803999DF80B20FFF7F0FA06B080BD88
:1010A00080B582B001900198142100F0C9F8009039
:1010B0004CF25030FFF7A4FA009802B080BD000057
:1010C00080B586B0049003910498039900F07CF9F0
:1010D0000190019818B1FFE70198059050E0FFE7F3
:1010E000039801694069884234D2FFE70398007F82
:1010F000182807D1FFE703994868496900EB810088
:1011000002900FE00398007F102807D1FFE70399B2
:101110004868496900EB4100029002E00120059017
:101120002EE0FFE72820FFF76BFA04984168403172
:10113000029A039B1B7F89B2FFF798FF01900198E9
:1011400018B1FFE7019805901AE00399486901304A
:101150004861C5E7049800F025F90190019818B19D
:10116000FFE7019805900BE0039B0498C068017AA3
:101170001A7F58681B69FFF78FFB00200590FFE777
:10118000059806B080BD000080B586B0049003913C
:1011900000208DF80B000121019100900498039923
:1011A00000F012F90190019818B1FFE7019805903D
:1011B00043E0FFE79DF80B0001308DF80B00049829
:1011C00031216A461023FFF751FF0190019818B1B1
:1011D000FFE70198059030E09DF801000006002827
:1011E00001D4FFE70DE09DF80B00142803D3FFE7BF
:1011F0000120059021E0002000902820FFF700FA50
:10120000D8E7049841684031039B5A681B7F89B234
:10121000FFF72CFF0190019818B1FFE701980590A6
:101220000BE0039A50680499C968097A127F012378
:10123000FFF732FB00200590FFE7059806B080BD60
:1012400080B584B00390029100200190039800883B
:10125000029901AAFFF708FB0198FFF781FA04B091
:1012600080BD000080B584B003900291039802997C
:10127000FFF7E6FF0190029803994860019804B0D7
:1012800080BD000080B586B00490039101200290DB
:1012900000200190039948610399C86004983121A6
:1012A00001AA1023FFF7E2FE02900298012806D05F
:1012B000FFE79DF805008006002803D4FFE7012022
:1012C00005906CE0039800780138014600910428ED
:1012D0005FD80099DFE801F0031D515737000498EB
:1012E00040680399896988420DD0FFE70498039903
:1012F0008969FFF7B7FF0290029818B1FFE70298DB
:1013000005904CE0FFE704980399FFF73DFF02903A
:1013100042E0049840680399896988420DD0FFE74C
:10132000049803998969FFF79DFF0290029818B10C
:10133000FFE70298059032E0FFE704980399FFF772
:10134000BFFE029028E00498007C03990978884247
:101350000DD0FFE7049803998969FFF783FF029096
:10136000029818B1FFE70298059018E0FFE704988B
:101370000399FFF71DFE02900EE004980399FFF712
:1013800069FD029008E004980399FFF793FC02902E
:1013900002E001200290FFE702980590FFE7059820
:1013A00006B080BD80B582B0019001981021FFF792
:1013B00047FF00900220FFF723F9019900200874ED
:1013C000009802B080BD000080B586B00590049101
:1013D00000200390012002900498007801460191BA
:1013E000012809D0FFE701980238032814D3FFE74A
:1013F0000198052828D1FFE70498007841F6FF718D
:101400000844039005980399FFF71AFF0290049887
:1014100000780599087427E00598007C04990978FC
:10142000884210D0FFE70498007841F6FF71084425
:10143000039005980399FFF703FF02900498007842
:1014400005990874FFE70FE00498007841F6FF71F2
:101450000844039005980399FFF7F2FE0290049860
:10146000007805990874FFE7029806B080BD000077
:1014700080B586B00590ADF8121003928DF80B3050
:101480000022019205980088BDF8121001ABFFF709
:10149000CBF9019803999DF80B20FFF779F906B075
:1014A00080BD0000704700007047000080B582B02A
:1014B0008DF807008DF80610FF208DF805009DF8C7
:1014C000070028BBFFE7FFE743F20000C4F201007A
:1014D000022100F02BFE08B9FFE7F5E79DF80600B2
:1014E00043F60C01C4F200010860FFE743F200007C
:1014F000C4F20100012100F019FE08B9FFE7F5E789
:1015000043F60C00C4F2000000688DF8050080E08E
:101510009DF80700012825D1FFE7FFE743F600000B
:10152000C4F20000022100F001FE08B9FFE7F5E770
:101530009DF8060043F60C01C4F200010860FFE7C5
:1015400043F60000C4F20000012100F0EFFD08B9ED
:10155000FFE7F5E743F60C00C4F2000000688DF8E1
:10156000050055E09DF80700022825D1FFE7FFE7B9
:1015700043F60040C4F20000022100F0D7FD08B994
:10158000FFE7F5E79DF8060043F60C41C4F20001C1
:101590000860FFE743F60040C4F20000012100F0BC
:1015A000C5FD08B9FFE7F5E743F60C40C4F20000BB
:1015B00000688DF805002AE09DF80700032825D172
:1015C000FFE7FFE743F20040C4F20100022100F010
:1015D000ADFD08B9FFE7F5E79DF8060043F20C41C1
:1015E000C4F201010860FFE743F20040C4F20100C9
:1015F000012100F09BFD08B9FFE7F5E743F20C403D
:10160000C4F2010000688DF80500FFE7FFE7FFE77F
:10161000FFE79DF8050002B080BD000070470000A4
:10162000704700004EF68851CEF20001086840F481
:101630007000086043F60001C4F20201086840F03F
:1016400001000860FFE743F60000C4F202000068F2
:101650004008C00708B9FFE7F5E743F60801C4F200
:101660000201086820F003000860FFE743F6080065
:10167000C4F2020000688008800708B1FFE7F5E7C0
:1016800043F60001C4F2020108684FF6FF72CFF67C
:10169000F2621040086043F60801C4F20201002023
:1016A000086043F60402C4F2020243F20201C0F2EF
:1016B0000301116043F6A001C4F20201086043F681
:1016C0000C01C4F202014FF41F0008604EF60851ED
:1016D000CEF200014FF0006008607047FFE7FEE7C0
:1016E000B0B590B094468E46044616981599149A53
:1016F0008DF83F408DF83EE08DF83DC08DF83C30D0
:101700008DF83B208DF83A108DF8390000F014F96F
:101710000CA800F0E3FC9DF83E0001460B91032865
:101720001ED80B99DFE801F002080F1600208DF893
:1017300035008DF8360013E000208DF835000120CB
:101740008DF836000CE001208DF8350000208DF872
:10175000360005E001208DF835008DF83600FFE7F2
:101760009DF83B0001460A91032814D80A99DFE846
:1017700001F002060A0E00208DF830000BE0012077
:101780008DF8300007E002208DF8300003E00320E0
:101790008DF83000FFE79DF83C00012804D1FFE7F9
:1017A00001208DF8310008E09DF83C0020B9FFE7EA
:1017B00000208DF83100FFE7FFE79DF83D0001466E
:1017C00009910A2834D80999DFE801F0060A0E12B7
:1017D000161A1E22262A2E0009208DF8320027E034
:1017E00008208DF8320023E007208DF832001FE03A
:1017F00006208DF832001BE005208DF8320017E03E
:1018000004208DF8320013E003208DF832000FE041
:1018100002208DF832000BE001208DF8320007E045
:101820000A208DF8320003E000208DF83200FFE737
:101830009DF8390020B9FFE701208DF8330009E059
:101840009DF83900012804D1FFE700208DF833000E
:10185000FFE7FFE79DF83A0020B9FFE700208DF889
:10186000340009E09DF83A00012804D1FFE7012087
:101870008DF83400FFE7FFE701208DF837009DF871
:101880003F0001460891032854D80899DFE801F089
:1018900002162A3E0C20C0F244000121079100F0FC
:1018A000BBF943F20000C4F2010006900CA900F05D
:1018B00055FC0698079900F027FC3BE00E20C0F28B
:1018C00040000121059100F0A7F943F60000C4F2A1
:1018D000000004900CA900F041FC0498059900F068
:1018E00013FC27E00F20C0F240000121039100F01B
:1018F00093F943F60040C4F2000002900CA900F0F6
:101900002DFC0298039900F0FFFB13E00D20C0F2BC
:1019100044000121019100F07FF943F20040C4F23C
:10192000010000900CA900F019FC0098019900F04A
:10193000EBFBFFE710B0B0BD80B588B00120C0F26E
:1019400030000121039100F067F906A8059000F02E
:101950005DFA03980599002201928DF81C208DF8FC
:101960001F0002208DF81D008DF81E004FF400505E
:10197000069040F20040C4F20200049000F058FAD1
:1019800004980D210522029200F0C6FA019A0498EB
:1019900005998DF81D204FF48042069200F048FA18
:1019A000029A04980E2100F0B7FA039A0498059958
:1019B0008DF81D204FF40042069200F039FA029A89
:1019C00004980F2100F0A8FA039A049805998DF85D
:1019D0001D208DF81E204FF48052069200F028FA48
:1019E00008B080BD80B582B08DF807009DF8070073
:1019F00048B9FFE740F20040C4F202004FF48051C2
:101A000000F0F0F908E040F20040C4F202004FF4A8
:101A1000805100F0F1F9FFE702B080BD81B08DF890
:101A200003009DF8032043F60801C4F20201086890
:101A300002F00F0220F0F00040EA0210086001B04E
:101A40007047000081B08DF803009DF8032043F635
:101A50000801C4F20201086802F0070220F4E05015
:101A600040EA8220086001B07047000081B08DF824
:101A700003009DF8032043F60801C4F20201086840
:101A800002F0070220F4604040EA4230086001B0F2
:101A90007047000081B08DF803009DF80300012815
:101AA00009D1FFE743F6A401C4F20201086840F03F
:101AB0003000086008E043F6A401C4F2020108689F
:101AC00020F030000860FFE701B0704782B08DF869
:101AD00007008DF806109DF80700014600910428C4
:101AE00044D80099DFE801F0030E1D2C37009DF863
:101AF000062043F60001C4F20201086862F3000008
:101B0000086034E09DF8062043F60001C4F20201AB
:101B1000086802F0010220F4803040EA02400860C8
:101B200025E09DF8062043F60001C4F20201086892
:101B300002F0010220F0807040EA0260086016E0C6
:101B40009DF8062043F67001C4F20201086862F3B2
:101B5000000008600BE09DF8062043F67401C4F213
:101B60000201086862F30000086000E0FFE702B0CD
:101B70007047000082B0019000208DF80300BDF88E
:101B8000060043F60001C4F202014058019901F039
:101B90001F01C840C00720B9FFE700208DF80300EF
:101BA00003E001208DF80300FFE79DF8030002B079
:101BB0007047000080B584B0002003908DF80B00C2
:101BC000FFE71120FFF7D6FF014600200129019011
:101BD00008D0FFE703990020B1F5405F38BF01202E
:101BE0000190FFE70198C00720B1FFE7039801309B
:101BF0000390E6E71120FFF7BDFF012804D0FFE7BF
:101C000000208DF80B0003E001208DF80B00FFE7AA
:101C10009DF80B0004B080BD82B001908DF80310D8
:101C20009DF8030001280FD1FFE7019800F01F0283
:101C3000012101FA02F3010C43F60002C4F2020290
:101C40008858184388500EE0019800F01F020121C7
:101C500001FA02F3010C43F60002C4F202028858B2
:101C600098438850FFE702B07047000082B08DF8BB
:101C70000700ADF80410ADF802208DF801309DF892
:101C8000070048B9FFE743F6A001C4F20201086863
:101C900040F480500860FFE79DF8072043F60401F8
:101CA000C4F20201086802F0010220F4800040EA58
:101CB00082500860BDF8042008686FF35F2247F681
:101CC000C073984340EA82100860BDF8022008689B
:101CD00062F3030008609DF80120086802F0070223
:101CE00020F4E02040EA0240086002B070470000A3
:101CF00043F60001C4F20201086840F001000860E8
:101D0000FFE743F60000C4F2020000684008C00785
:101D100008B9FFE7F5E743F60801C4F202010868D5
:101D200020F003000860FFE743F60800C4F2020059
:101D300000688008800708B1FFE7F5E743F6000177
:101D4000C4F2020108684FF6FF72CFF6F26210404B
:101D5000086043F60801C4F202010020086043F65F
:101D60000402C4F2020243F20201C0F20301116054
:101D700043F6A001C4F20201086043F60C01C4F26C
:101D800002014FF41F0008607047000081B08DF819
:101D900003009DF8032043F60801C4F2020108681D
:101DA00062F30100086000BF00BF00BF00BF00BFBA
:101DB00000BF00BF00BF00BF00BF00BF00BF00BF2B
:101DC00000BF00BF00BF00BF00BF00BF00BF01B029
:101DD0007047000043F60800C4F202000068C0F338
:101DE0008100704782B00190ADF80210BDF802008A
:101DF0000199886202B0704782B00190ADF802107C
:101E0000BDF802000199886102B0704781B000906E
:101E100000994FF6FF7008600099002088710099C2
:101E200008710099487100990120C87101B070478C
:101E300083B0029001910020ADF800000198006885
:101E4000ADF80200FFE7BDF80200012862DBFFE702
:101E5000BDF80200C007002851D0FFE7BDF8000020
:101E60004100032000FA01F3029A116899431160BE
:101E700001998979BDF80020520001FA02F3029A13
:101E8000116819431160BDF80020012101FA02F325
:101E9000029A51689943516001990979BDF800206F
:101EA00001FA02F3029A516819435160BDF800101B
:101EB000490000FA01F3029A9168994391600199EF
:101EC000C979BDF80020520001FA02F3029A916824
:101ED00019439160BDF80010490000FA01F202991F
:101EE000C8689043C86001984079BDF80010490067
:101EF00000FA01F20299C8681043C860FFE7BDF814
:101F000002004008ADF80200BDF800000130ADF855
:101F1000000098E703B0704784B003908DF80B1071
:101F20008DF80A200020019000909DF80A109DF87D
:101F30000B2002F007029200914001919DF80B10D6
:101F4000B0EBD10F15D0FFE79DF80B0000F00700B4
:101F500081000F2000FA01F20399486A9043486219
:101F60000398406A019908430090009803994862D9
:101F700014E09DF80B0000F0070081000F2000FA2C
:101F800001F20399086A904308620398006A019974
:101F900008430090009803990862FFE704B0704777
:101FA00080B596B000200190159001200290ADF808
:101FB000520004A803904021FEF77CF900F0CAF912
:101FC00000F01EF80199029A039B084600F032F8CF
:101FD000ADF85200BDF8520008B1FFE700E0FFE79E
:101FE00002200021FF2204AB00F024F8ADF85200DB
:101FF000BDF8520008B1FFE700E0FFE7FFE7FEE7AA
:1020000080B584B0694601238B6000204860086079
:10201000052218461946FFF763FB40F20810C2F28A
:10202000000040F2E801C2F20001FEF723FD04B017
:1020300080BD000080B584B08DF80F008DF80E10C3
:10204000ADF80C2002930120ADF806009DF80F00BA
:1020500001460091042828D80099DFE801F0181102
:102060000A031F0040F2E801C2F2000104200870D8
:102070001BE040F2E801C2F200010320087014E006
:1020800040F2E801C2F20001022008700DE040F2C7
:10209000E801C2F200010120087006E040F2E80108
:1020A000C2F2000105200870FFE7BDF80C1040F2F5
:1020B0000810C2F20000826891809DF80E2040F264
:1020C000E801C2F200018A61029A4A60FFF7DAF879
:1020D000ADF80600BDF8060004B080BD81B00090E8
:1020E0000099002008700099487000998870009944
:1020F000C870009908710099487100998871009919
:102100000120C87101B0704782B001908DF80310B2
:102110009DF803200199086802F0010220F04000B8
:1021200040EA8210086002B07047000083B002905D
:10213000019100208DF803000298806801990842FF
:1021400004D1FFE700208DF8030003E001208DF8A3
:102150000300FFE79DF8030003B0704782B00190D1
:1021600000910199C86920F40060C8610098007866
:1021700080B9FFE70199086820F4004008600199E0
:10218000086820F4804008600199086820F48060A5
:10219000086041E000980078012810D1FFE701991C
:1021A000086820F4004008600199086820F4804025
:1021B00008600199086840F4806008602BE000988E
:1021C0000078022810D1FFE70199086840F4004028
:1021D00008600199086820F4804008600199086847
:1021E00020F48060086015E000980078032810D182
:1021F000FFE70199086840F4004008600199086809
:1022000040F4804008600199086820F4806008600C
:10221000FFE7FFE7FFE7FFE70098C2790199086849
:1022200002F0010220F4007040EA422008600098A9
:10223000407801280BD1FFE70098C079012806D12A
:10224000FFE70199086840F48070086005E0019993
:10225000086820F480700860FFE7009842780199D0
:10226000086802F0010220F0040040EA82000860E1
:1022700000988078072816DCFFE70199486820F469
:10228000007048600199486820F4807048600098A8
:1022900082780199086802F0070220F0380040EACD
:1022A000C20008602BE0009880780A2810D1FFE770
:1022B0000199486840F4007048600199486820F42A
:1022C000807048600199086820F03800086015E0C7
:1022D0000199486820F4007048600199486840F40A
:1022E000807048600098807800F0070201990868C3
:1022F00020F0380040EAC2000860FFE7FFE70098DE
:10230000C2780199086802F0010220F0800040EADA
:10231000C2100860009802790199086802F0010271
:1023200020F4006040EAC2200860009842790199D8
:10233000086802F0010220F0020040EA4200086052
:10234000009882790199086862F30000086002B081
:102350007047000080B584B0FFF7CAFC1C20C0F2B3
:10236000400001210391FFF757FC039947F2100247
:10237000C4F20002106820F00700106043F66042CB
:10238000C4F20202106861F3010010600846FFF712
:102390009DFBFFE7FFF70EFC08B9FFE7FAE7012016
:1023A0000290C021052202230193FFF75FFC0198F0
:1023B0000299FFF78BFBFFE71920FFF7DBFB0128F2
:1023C00001D0FFE7F8E70020FFF728FB042000908A
:1023D000FFF74CFB0098FFF735FB0120FFF75AFB96
:1023E0000220FFF7D3FCFFE7FFF7F4FC022801D03F
:1023F000FFE7F9E70020FFF74DFB00F003F804B01A
:1024000080BD000080B58AB0002009900890079038
:102410000690059004900390FFF7DCFC8DF80B000C
:102420009DF80B000146019140B1FFE7019801289A
:102430002BD0FFE70198022831D068E043F6A000D6
:10244000C4F202000068800BC00798B1FFE743F6B2
:10245000A000C4F202000068000BC00750B1FFE703
:1024600040F21C11C2F2000146F60040C0F2DC202E
:10247000086009E040F21C11C2F2000141F20020A4
:10248000C0F27A000860FFE74BE040F21C11C2F294
:10249000000147F64000C0F27D10086041E043F6BD
:1024A0000400C4F202000168C1F380510691016882
:1024B000C1F388110991016801F00F0108910068CA
:1024C000C0F3024142F27250C0F60000405C079037
:1024D000069830B9FFE741F20020C0F27A0005907B
:1024E00005E047F64000C0F27D100590FFE7059833
:1024F0000999A0FB0101089A079B5A430023FDF7A5
:10250000A1FE40F21C11C2F20001086009E040F295
:102510001C11C2F2000141F20020C0F27A000860F2
:10252000FFE743F60800C4F202000068C0F303109E
:102530000490049942F27850C0F60000405C039089
:1025400040F21C11C2F200010868039AD0400860F2
:102550000AB080BD02E008C8121F08C1002AFAD1E3
:1025600070477047002001E001C1121F002AFBD113
:102570007047010204081020000000000000000065
:102580000102030406070809A8250008000000202E
:102590002001000054250008C82600082001002062
:1025A000080400006425000800000000010100008C
:1025B0000200000004000000000000000000000015
:1025C0000000000001000000010001000200000006
:1025D00004000000000000000000000000000000F7
:1025E00002000000010200000200000004000000E0
:1025F00000000000000000000000000003000000D8
:1026000001000200020000000400000000000000C1
:1026100000000000000000000400000001030000B2
:1026200002000000040000000000000000000000A4
:10263000000000000500000001000300020000008F
:102640000400000000000000000000000000000086
:102650000600000001040000020000000400000069
:102660000000000000000000000000000700000063
:10267000010004000200000004000000000000004F
:10268000000000000000000000000000FF0000004B
:1026900000000000200100200800000000000000F1
:1026A0000100000000000000000000000000000029
:1026B0000000000000000000E000002000000020FA
:0826C0000000000000127A0086
:040000050800020DE0
:00000001FF
